:020000040800F2
:1000000040110120690B0008E92E0008550B00087B
:10001000550B0008550B0008550B000800000000A8
:100020000000000000000000000000009D0B000820
:10003000550B0008000000002D0D000855190008A0
:10004000A50D0008A50D0008A50D0008A50D0008C8
:10005000A50D0008A50D0008A50D0008A50D0008B8
:10006000A50D0008A50D0008A50D0008A50D0008A8
:10007000A50D0008A50D0008A50D0008A50D000898
:10008000A50D0008A50D0008A50D0008A50D000888
:10009000A50D0008A50D0008A50D0008A50D000878
:1000A000A50D0008A50D0008A50D0008A50D000868
:1000B000A50D0008A50D0008A50D0008A50D000858
:1000C000A50D0008A50D0008A50D0008A50D000848
:1000D000A50D0008A50D0008A50D0008A50D000838
:1000E000A50D0008A50D0008A50D0008A50D000828
:1000F000A50D0008A50D0008A50D0008A50D000818
:10010000A50D0008A50D0008A50D0008A50D000807
:10011000A50D0008A50D0008A50D0008A50D0008F7
:10012000A50D0008A50D0008A50D0008A50D0008E7
:10013000A50D0008A50D0008A50D0008A50D0008D7
:10014000A50D0008A50D0008A50D0008A50D0008C7
:10015000A50D0008A50D0008A50D0008A50D0008B7
:10016000A50D0008A50D0008A50D0008A50D0008A7
:10017000A50D0008A50D0008A50D0008A50D000897
:10018000A50D0008A50D0008A50D0008A50D000887
:10019000A50D0008A50D0008A50D0008A50D000877
:1001A000A50D0008A50D0008A50D0008A50D000867
:0401B000A50D000891
:1001B40053B94AB9002908BF00281CBF4FF0FF31CA
:1001C4004FF0FF3000F00CB8ADF1080C6DE904CE2F
:1001D40000F008F8DDF804E0DDE9022304B070471C
:1001E400704700BF2DE9F0478C468E46089E1546A1
:1001F40004461946002B40F0D080724547D9B2FA24
:1002040082F74FB1C7F120030EFA07FC20FA03F37B
:10021400BD4043EA0C0CBC404FEA154EA8B2BCFBEF
:10022400FEF8230C0EFB18CC08FB00F943EA0C4340
:10023400994528D9EB1808F1FF3204D2994502D91F
:10024400A8F102022B44A3EB0903A4B2B3FBFEFC06
:100254000EFB1C330CFB00F044EA0344A04214D907
:100264002C190CF1FF3304D2A04202D9ACF10203E1
:100274002C44241A43EA02401EB1FC40002334609B
:100284007360BDE8F0874246DDE76346F1E7002A84
:1002940079D0B2FA82F3002B3FD01946C1F1200382
:1002A40002FA01F52EFA03F20EFA01FE20FA03F324
:1002B40043EA0E034FEA154E00FA01F4B2FBFEFCCA
:1002C400AFB20EFB1C201A0C0CFB07F842EA0042EA
:1002D40090455AD9AA180CF1FF3004D2904502D99E
:1002E400ACF102002A44A2EB08029BB2B2FBFEFC72
:1002F4000EFB1C220CFB07F743EA02439F4246D93C
:10030400EB180CF1FF3204D29F4202D9ACF1020285
:100314002B44DB1B42EA004202E0AEEB0203012263
:100324004FEA154EAFB2B3FBFEFC200C0EFB1C33A0
:100334000CFB07F840EA034398452AD9EB180CF163
:10034400FF3004D2984502D9ACF102002B44A3EB50
:100354000803A4B2B3FBFEFC0EFB1C330CFB07F733
:1003640044EA0344A74216D92C190CF1FF3304D2F2
:10037400A74202D9ACF102032C44E41B43EA004037
:100384000F46114678E71F2188E76046ABE76246CF
:10039400BFE76046DBE76346EFE7734506D916B966
:1003A400002108466DE7C6E9000EF9E7B3FA83F7C2
:1003B40087B9734501D3824207D8841A6EEB0303CD
:1003C40001209C461EB900215BE73846FAE7C6E9DE
:1003D400004CF8E7C7F1200CBB4022FA0CF51D4392
:1003E40020FA0CF12EFA0CF30EFA07FE41EA0E0184
:1003F4004FEA154900FA07F4B3FBF9F81FFA85FE32
:1004040009FB18300B0C08FB0EFA43EA00439A452B
:1004140002FA07F240D9EB1808F1FF3004D29A45EA
:1004240002D9A8F102002B44A3EB0A0389B2B3FB5F
:10043400F9F809FB183308FB0EFE41EA03418E4527
:100444002CD9691808F1FF3304D28E4502D9A8F1DA
:100454000203294443EA0040A0FB0298A1EB0E01E9
:100464004145CE46434602D306D14C4504D2B9EBAE
:10047400020E68EB05030138002EA4D0B4EB0E0283
:1004840061EB030101FA0CFC22FA07F34CEA0303C3
:10049400F940C6E9003196E74046C5E74346D9E747
:1004A400F8B5174D284602F077FF044630B32A69A1
:1004B4002846A968136823F0020313604FF420222E
:1004C4000B6801219847002818DB0E4E0E4FAB68CD
:1004D400022128465B69984700280FDB84F0010459
:1004E4000A4814F0FF040CBF3146394602F076F98D
:1004F400002142F2107002F0E5FFE8E70020F8BDA9
:100504004C3700080D3E00080A3E0008113E000862
:10051400024808B502F028FC002008BD203E00086F
:10052400014B1B68184700BF00000120014B1860F5
:10053400704700BF0000012030B5044685B00D4669
:1005440010220021684602F0FFFF02232A462146BA
:100554008DF802306846034B019302F051F905B05F
:1005640030BD00BF25050008034A0020536823F06E
:1005740002035360704700BF002004E008B54168DF
:1005840005480C3183681B681BB1984700EAE0708A
:1005940008BD6FF05700F9E7DC3600080A2810B5EB
:1005A40002D90024204610BD044B53F820402046B5
:1005B40002F0F2FE0028F5D1F3E700BFCC3C0008BE
:1005C400064B1A6842F400721A601A6842F4807288
:1005D4001A60034B034A1A60704700BF003C024094
:1005E4002C0001200024F400014B03600320704719
:1005F400F83C000880B505460E461746984601F0BB
:10060400F7FEDFF82090034600F0DCFB0446424688
:1006140049F8003039463046A84754F8090000F03C
:100624006DFB00BF0800000006480021064A08B51B
:10063400121A02F04FFC0548054A0021121A02F072
:1006440049FC08BD70000120800301200000002047
:10065400000000200A480B4A0B49121A08B502F0A0
:100664003BFC0A480A4A0B49121A02F035FC0A48B4
:100674000A4A0B49121ABDE8084002F02DBC00BF1B
:100684000000012070000120DC430008000001206C
:1006940000000120DC4300080000002000000020CE
:1006A4004C44000838B505460C4699B11048D1E9C8
:1006B4000123096802F058FBE1680E48D4E90423D9
:1006C40002F052FBE1690C4802F04EFBA1690B48B1
:1006D40002F04AFB012D05D1EFF3058108481039DA
:1006E40002F042FB21462846BDE8384001F09EBA9C
:1006F400303F0008603F0008903F0008A03F00081A
:10070400CF3F000830BFFFF7FDBF00BF2DE9F04128
:100714000B4E0546DFF82C80324606EB0807CC1B4F
:100724000949204602F002FFA019083C4246002174
:1007340002F00AFF07F108002C67BDE8F08100BF52
:100744000000000004000000E83B00082DE9F84325
:10075400324D804632488946174602F005FBAB6AA3
:10076400DE0622D511242F4802F0FEFAAB6A1D07DB
:1007740003D512242C4802F0F7FA284DAB6A9807E7
:1007840015D52A4802F0F0FA6E6BAB6A190642D509
:100794003146274802F0E8FAB9F1000F03D0AB6AFA
:1007A40023F08003AB62132403E01024DEE76FF030
:1007B40015061A4DAB6ADA0703D514241D4802F056
:1007C400D3FAAB6A9B0603D515241B4802F0CCFA76
:1007D400124B9A6AD50602D49A6A90070AD55B68C6
:1007E400190507D54146304600F03EFA10B180F3B2
:1007F40009880224094B9A6A920603D55A6A22F49C
:1008040000525A629A6A204642F0FF029A6200231A
:100814003B70BDE8F8836FF01506C4E700ED00E017
:10082400E33F0008FA3F00082E4000084240000859
:100834005B400008724000089240000810B51D4C4F
:100844001D4802F091FAA36A990130D51B4802F0C1
:100854008BFA1E20A36ADA0103D5194802F084FA40
:100864001F20144CA36A1B0303D5164802F07CFA1C
:100874002120A36A590303D5134802F075FA2220F4
:100884000C4CA36A9A0303D5104802F06DFA232096
:10089400A36ADB0303D50E4802F066FA2420054A56
:1008A400936A6FEA03436FEA1343936210BD1D20FA
:1008B400D0E700BF00ED00E0C2400008DB400008C4
:1008C400EF4000080A410008294100084F41000890
:1008D4006A41000870B5244C064624480D4602F0CF
:1008E40043FAA36AD90435D5214802F03DFA17200A
:1008F400A36A1A0503D51F4802F036FA18201A4CC9
:10090400A36A9B050FD51C4802F02EFAA16BA36ABB
:10091400180407D5194802F027FA1EB1A36A23F474
:100924000043A3621920104CA36A590503D5144847
:1009340002F01AFA1A20A36ADA050DD5114802F05A
:1009440013FA1B20084A936A43F47F4393620023FB
:100954002B7070BD1620CBE7A36A9B04F2D50A481E
:1009640002F002FA1C20EDE700ED00E096410008D9
:10097400AD4100082E400008BF410008D9410008DD
:10098400EF4100080B420008924000085F4B2DE93C
:10099400F0415F688AB004460025C7F3080685F372
:1009A4001188BFF36F8F02F07F43B3F17F4F06D1FD
:1009B40002F00C03082B13D1554802F0D5F9002599
:1009C4002C464FF00008F31E8DF80780092B00F227
:1009D4008D80DFE803F00A81857D8B8B8B8B8B897F
:1009E40010074CBF0C460125EBE7484E494802F07E
:1009F400BBF98DF80780F36A9A0704D5464802F0DC
:100A0400B3F900232AE0F36A002B01DA4348F6E73E
:100A1400F36A5B00F5D5424802F0A6F97369A2694E
:100A240043F480737361BFF34F8FBFF36F8F32F85A
:100A3400023C726922F480727261BFF34F8FBFF37C
:100A44006F8F03F47F42B2F55F4F28D1DBB2022BE4
:100A540025D12168334802F087F923689DF80720DF
:100A6400D2B902AE04F120072068083454F8041CFB
:100A74003246BC4203C21646F6D1099A002D41D033
:100A8400C2F3080121B96FEA52226FEA42220992A5
:100A940002A91846FFF706FE0AB0BDE8F0811B4B19
:100AA4009A6AD2B232B10DF1070201212046FFF752
:100AB4004DFE0FE09A6A12F47F4F05D00DF1070145
:100AC4000120FFF707FF05E09B6AB3F5803F98D349
:100AD400FFF7B4FE0346C1E70DF107020021E5E785
:100AE4000DF107010020ECE70F4888E717F4F87FC1
:100AF4000E4B0F49A6F1100208BF19460D4802F02B
:100B040033F97EE76FF30802C1E700BF00ED00E0B0
:100B1400524200087E42000896420008B84200088B
:100B2400C7420008E74200080443000824420008C2
:100B34003942000829430008044B5A6942F0100264
:100B44005A615A6922F008025A61704700ED00E0C8
:100B5400EFF30880EFF3098101B57246FFF716FF42
:100B640001BD00BF0A4880F30888102080F3118873
:100B740008484FF40461401880F30988EFF31480A7
:100B84000221084380F31488BFF36F8F00F03AF812
:100B940040110120800301201EF0040F0CBFEFF36D
:100BA4000880EFF30980816911F8021C0229FFD043
:100BB40001B5724602F092F901BD00BF40B20131A5
:100BC40000284FEA0111C9B206DB00F1604000F5CC
:100BD400614080F80013704700F00F00014B195476
:100BE400704700BF14ED00E0044B054A23F07F0377
:100BF4009360BFF34F8FBFF36F8F704700000008FF
:100C040000ED00E008B5FFF7EFFF0B4AD2F888309B
:100C140023F47003C2F88830EFF3148323F0040341
:100C240083F31488BFF36F8FFFF7FEFCFFF712FD09
:100C340000F0AAF801F0BEF800ED00E042F8203C14
:100C4400203A009B07495360019B21F00101936006
:100C5400029B9161D3604FF08073D36100230265DE
:100C640043677047F9050008094A0346906870B164
:100C740013F1160F006E05D0A0F14002934205D384
:100C8400834203D2814228BF00207047002070476E
:100C94005003012015460C4A0E4608B50B4B9060D4
:100CA400026F1A6000F0A0F82C4686F30988002031
:100CB400034B98472046002100220023014C204783
:100CC400052F0008F905000850030120A4020120A3
:100CD400014B10221A61704700ED00E0054B5A6980
:100CE4009B689A4204D0044A536843F0805353608B
:100CF400704700BF5003012000ED00E0084B9B68E3
:100D040083420BD1EFF3058343B1064B5A6842F09B
:100D140080525A605A6A22F400425A6202F05DBB61
:100D24005003012000ED00E014498A684FF03000C0
:100D34001044EFF3098C80E8F01F102080F3128830
:100D4400BFF36F8F0E4F4FF000664A698A603E60B2
:100D5400106F0C4C2060506F0023536780F3118890
:100D640004B5104600F040F8BDE8044002F130003C
:100D740090E8F01F8CF309887047000050030120AD
:100D840004ED00E0A4020120002304481021C2184D
:100D940001335D2B82F80013F9D1704700E100E0C4
:100DA40008B5EFF30583064A103B02EBC30152F882
:100DB400330049688847BDE80840FFF78FBF00BF8C
:100DC4009C3800080148006870470000A402012014
:100DD400024B0121024A034800F076B800000520C6
:100DE40000000120283D0008036E4021044A403BD6
:100DF40010461360034BC2E90113012100F06EB8E1
:100E0400A802012000000B15084AC2F898000B68DC
:100E140023F01F03034343F01003C2F89C308B6894
:100E240043F00103C2F8A030704700BF00ED00E0BA
:100E34002DE9F0430E4685B01F4604464FF00009E5
:100E4400DFF85480B14523DA6068D8B13FB1411E60
:100E540008421BD11F2819D92368194216D12368C7
:100E6400019302F061F8A3680343D0B20393D8F866
:100E74009050C5F30725013DA84207D801A9FFF703
:100E8400C3FF421C09F101090C34DBE76FF01502C2
:100E9400104605B0BDE8F08300ED00E0044B0522E8
:100EA400C3F89420BFF34F8FBFF36F8F704700BF19
:100EB40000ED00E0BFF35F8F024B0022C3F89420E3
:100EC400704700BF00ED00E010B5034C0123227809
:100ED400FFF7AEFF207010BD7C0301200B4A08B55C
:100EE40000231278FFF7A4FF10F1160F07D0084A69
:100EF4000021D2F89030C3F30723984200DB08BDE9
:100F0400C2F898000130C2F8A010F2E77C03012077
:100F140000ED00E05B4B2DE9F0435B4D85B0D3F869
:100F240090302C68C3F307239C4200F2A780002072
:100F34000C26FFF7BFFF84421AD1544E684600279F
:100F4400DFF840913470FFF74FFB514C8046514D10
:100F5400B84514D1337800204A49D1F89020C2F31F
:100F640007229342C0F284800020FFF797FF45E0F8
:100F7400696806FB0011FFF747FF0130DBE70098C3
:100F84004FEA071C00EB0711CB682340B3F5000FB1
:100F94004DD00AD8B3F5001F33D0B3F5800F3BD042
:100FA400B3F5801F13D00137D2E7B3F1007F47D0E8
:100FB400B3F1805F4DD0B3F1807FF4D150F80C30A1
:100FC400886801F0B1FF4A6840F0887009E050F881
:100FD4000C30886801F0A8FF40F088504A6840F45B
:100FE400302003903078CDE90123D9F89030C3F351
:100FF4000723013B984234D96FF0150005B0BDE8D2
:10100400F08350F80C30886801F08EFF40F088506F
:101014004A6840F40020E4E750F80C30886801F096
:1010240083FF40F0C0604A6840F40030D9E750F8CC
:101034000C30886801F078FF4A6840F08270D0E78D
:1010440050F80C30886801F06FFF4A6840F4802043
:10105400C7E750F80C30886801F066FF4A682843F7
:10106400BFE701A9FFF7D0FE3378013333709AE765
:10107400C1F898300133C1F8A0006EE74FF0FF309B
:10108400BCE700BF00ED00E0343D00087C03012014
:101094000000F0FF0000021108B5024B1B689847DE
:1010A400002008BDB4020120034B044A1860937861
:1010B40043F0020393707047B4020120040001203E
:1010C4000649074821F00701C1F1005208B502F5AD
:1010D400A02201F006FE002008BD00BF87110120F8
:1010E400B802012007B5084A92E80300CDE90001DF
:1010F40006488268126822B16946904703B05DF8D9
:1011040004FB6FF05700F9E7E83B0008DC36000801
:101114001F2809D8012303FA00F0044B5B699843A4
:101124000CBF01200020704700207047003C0140A4
:1011340000F01F0201231F2803FA02F303D8034A15
:101144000020536170476FF015007047003C014068
:10115400044B18440023013300F8012B8B42FADBC3
:10116400704700BF400001202DE9F04105460026EC
:101174000F4F4FF00108F4B26B78A34201D8BDE8D9
:10118400F0812B781C442046FFF7C2FF68B120464B
:10119400FFF7CEFF57F834303BB107EBC40204F03D
:1011A4001F04516808FA04F098470136E3E700BFCA
:1011B400C402012038B5364B14460D4618680B8816
:1011C4008208C3F30B03142B17D8EBB1013B132B89
:1011D4001AD8DFE803F00B0A520A4E242E19191903
:1011E40019191919193A4422500B002020602B6850
:1011F400B3F5805F44D2002038BD382BF6D006D832
:1012040023F00403302BF1D06FF08500F4E7442B76
:101214000DD0A82BEAD0402BF6D11046E6E700F01B
:10122400F3F81923B0FBF3F04FF4D8735843400894
:10123400DCE700F0E9F81923B0FBF3F04FF4D873BE
:1012440058430923B0FBF3F0D0E700F011F9192358
:10125400B0FBF3F04FF4C07358430523F2E700F0FA
:1012640007F91923B0FBF3F04FF4C0735843282354
:10127400E8E70848BAE75000B8E74FF4FA40B5E7A2
:10128400C3F313330133B0FBF3F02060B3E700BFC3
:101294002C00012040787D01142808D8054BC34058
:1012A40013F0010F0CBF6FF08500002070476FF042
:1012B40085007047EA001F0070B54E4D00F0FEF83F
:1012C4004D4C284601F006FF00F008FCA3684B4A89
:1012D400C3F30313D35C20FA03F613781D41AE4223
:1012E40002D2284600F028FC236823F480232360DC
:1012F400236843F4803323603F4B1A689103FCD581
:101304005A6F42F001025A675A6F9207FCD59A68E5
:1013140002F00C02082A17D11A68940707D41A6835
:1013240042F001021A60344A13689807FCD5324B24
:101334009A6822F003029A609A6812F00C0FFBD1AB
:101344009A6822F0F0029A602B4C236823F0807391
:10135400236023689901FCD4294AD2F8043823F481
:101364004033C2F80438D2F8043823F0706343F0F1
:101374001063C2F8043800F04BF8236843F080731C
:1013840023601D4C23689A01FCD500F075F823688E
:1013940043F08053236023689B00FCD5A36823F0AB
:1013A400F003A360A36823F0030343F00203A360E4
:1013B400114CA36803F00C03082BFAD1AE4202D3FC
:1013C400284600F0B9FB0F4B00200A4A1A60A368B4
:1013D40023F4E05343F4A053A360A36823F46043CD
:1013E40043F40043A360D4F88C3023F08073C4F832
:1013F4008C3070BD00E6DF0C00380240CA430008A0
:10140400003002402C0001200048704740787D01E4
:10141400114B12495A681140114A0A4311495A6042
:101424005A681140104A0A435A601A6842F080729E
:101434001A60A3F5E4331A6842F480321A605A68D9
:10144400D203FCD51A6842F400321A60074A536882
:101454009B03FCD5704700BF003802400080BCFFEE
:10146400196C40000080BFF0196C40090070004006
:101474000048704740787D010E4A536823F4800386
:1014840023F03F0343F4800343F0190353600A4BF2
:10149400D2F888100B4043F0A04343F4C043C2F891
:1014A4008830D2F88C3023F4403343F40033C2F84C
:1014B4008C307047003802403F80FF8F064B82B06B
:1014C4001A6C42F080521A641B6C03F0805301932F
:1014D400019B02B0704700BF0038024008B50748BE
:1014E40001F05AFF38B10648FFF7DEFD0448FFF764
:1014F4001DF8002008BD6FF01200FBE780380008DB
:10150400091500080A2838B50446074D04D1AB680C
:101514000D2128465B689847AB68E1B202485B68D6
:101524009847204638BD00BF80380008F8B50C46FF
:10153400036941681D682379012B18D0A3F1020EB9
:10154400DEF1000646EB0E06B6026279022A96BF69
:10155400474F4FF4005737F81270A279022A09D086
:10156400042A30D0003B18BF01231B0306E04FF4CC
:10157400C066EAE7B3FA83F35B091B07E2790968FB
:10158400012A0CBF4FF4407C4FF0000CA5421DD142
:101594000A6822F0805222F4B05232431A430A609D
:1015A4004B6823F440533B434B6043681A68936889
:1015B40023F4407343EA0C03936029684068BDE850
:1015C400F84001F030BE4FF48053D7E7D1F800E083
:1015D4000EF4C06E764506D0D1F800E02EF4C06E4D
:1015E4004EEA06060E6041680E68716801F44051C7
:1015F4008F4204D0716821F44051394371604168CD
:101604000E68316801F010218B4204D0316821F05A
:1016140010210B433360436819688B6803F44073EB
:101624009C4505D08B6823F4407343EA0C038B601C
:101634004368D71E1B687E4299687E41C1F380319E
:101644008E4207D0032A9A680CBF42F4804222F4E7
:1016540080429A6021682B68994206D0406801F064
:10166400E2FD08B923682B60F8BD0020FCE700BF49
:10167400043E0008F7B5446806466068216983683B
:101684001B68002B00F092809847002830DB01AAE9
:101694000021606A01F01FFD002829DB019B002264
:1016A4001979186801F029FD002821DB7568336970
:1016B4002C681F68236823F001032360A86801F0E5
:1016C4006BFE002875D0D5E902018368DB6803B19D
:1016D400984754E8003F43F00C0344E80032002AE2
:1016E400F7D139463046FFF721FF18B16FF01500E6
:1016F40003B0F0BD2B7E1BB1A36843F00803A360C5
:101704006B7E1BB1636843F400436360AB7E1BB123
:10171400636843F480336360EB7E1BB1636843F416
:10172400003363602B7F002B38D0234B9C421BD0AB
:10173400A3F54C439C4217D003F580639C4213D01D
:1017440003F580639C420FD003F580639C420BD069
:1017540003F544439C4207D0A3F51C439C4203D0A9
:1017640003F580639C42C1D173681A68936843F49B
:101774008043936023686A7F23F0787343EA42537B
:1017840023602368AA7F23F4F81343EA0243236007
:10179400EB7F1BB1A36843F40043A360236843F0C9
:1017A40001032360E3699B02FCD5A1E76FF05700B6
:1017B4009EE76FF012009BE7001001402DE9F04115
:1017C400436802460D461C6803691E680B79012BA9
:1017D40017D0981E41424141890295F805E0AF793E
:1017E400BEF1020F96BF3A484FF4005C30F81EC0B9
:1017F400022F09D0042F01D0002B60D04FF4805069
:1018040005E04FF4C061E8E7002B55D00020A3F1B8
:101814000308B8F1010F04D86FF085031846BDE83A
:10182400F0810BB1042FF7D0BCF5805F49D0BCF533
:10183400405F48D0BCF1000F0CBF012303239E4539
:10184400EAD101F0AEFC8742E6D1EB7903B3012B78
:101854003BD1204B9C421BD0A3F54C439C4217D058
:1018640003F580639C4213D003F580639C420FD040
:1018740003F580639C420BD003F544439C4207D09C
:10188400A3F51C439C4203D003F580639C42C3D15F
:1018940023682946104623F001032360FFF746FE20
:1018A40003460028B8D1226842F00102226095E87C
:1018B400030086E80300B1E74FF08050B4E7184610
:1018C400B2E70023BBE70223B9E7032BC1D0A3E7A8
:1018D400043E0008001001404FF0E0230D4A9969CE
:1018E400126818699B69002908BF1146002B08BFBC
:1018F400134610F4803F084801D1994205D201688B
:10190400114401604FF0E021096900681044C01AD5
:10191400704700BF4C03012044030120094B1022EF
:10192400002083F8232045F26042074B1A6045F2F9
:101934005F42064B18604FF0E0235A61072298611A
:101944001A61704700ED00E04C03012044030120BC
:10195400684620F007018D46F1B501F0FDFC044610
:10196400FFF7BAFF1248134A002703680760D2E959
:1019740000515B19104D41F10001C2E90031D5E974
:10198400006145F260429B1BB3FBF2F002FB00F3E3
:101994009B1941F10001C5E90031084B21461F6044
:1019A40000F09CFEFFF79AF9BDE8F14085467047C8
:1019B4004403012078000120700001204803012025
:1019C4002DE9F0418046344E69B1B0F1FF3F0AD1B0
:1019D4004FF0E022136923F0010313614FF07F43BA
:1019E4003360BDE8F081FFF777FF4FF0E0232B4928
:1019F4009C692B4A3568D1E90037C3184FF00000C1
:101A040047F10007B8F1FF3F1060C1E9003725D066
:101A14002448D0E90020B3EB020C67EB0007002F49
:101A240037DB214B45F2604E4FEAE8701B6813EB3D
:101A3400080340F10000A3FB0E320EFB0022B3EBBF
:101A44000C0340F2475062EB0702834272F100003C
:101A54001FDBB3F1807F72F1000201DB6FF07F4383
:101A640033604FF0E022013B966953610023B44296
:101A740093614FF000720D4B5A6036BF6319A31B7C
:101A84009B1BD1E900021B1842F10002C1E900329C
:101A9400A7E740F24653E3E74C0301207800012016
:101AA40044030120700001204803012000ED00E000
:101AB400074B10B51C68074B1B68E41AFFF70CFFB3
:101AC40045F260432044B0FBF3F0034B186010BDB3
:101AD400780001207000012048030120134908B553
:101AE4008B6803F00C03042B1BD0082B1BD14A6812
:101AF4004B68496802F03F0213F48003C1F3881174
:101B04001ABF0B4800230B48A1FB0001FEF750FB52
:101B1400064B5B68C3F3014301335B00B0FBF3F096
:101B240008BD0348FCE70348FAE700BF0038024059
:101B340040787D010024F40000284CD0334B1A680F
:101B44001B6802F44042B2F5404F26D113F48033AF
:101B540053D02F4B984242D90723012B38BF01237E
:101B640009E02C4A904203D9002B44D1022302E01D
:101B7400294A9042F1D829490A6822F00F021A43EF
:101B84000A600A6802F00F02934226D0086800F047
:101B94000F00C01A18BF0120704703F44043B3F587
:101BA400004F05D103F10F6303F5A343984210D806
:101BB4001B4B984227D81B4B984208D8154B984288
:101BC400D4D8154B984294BF00230123D3E70323B1
:101BD400D1E70523CFE70120704700207047124B5F
:101BE400984208D80E4B984205D806230D4A9042D5
:101BF400B7D9002BEBD00623AFE70B4A9042E8D8C5
:101C0400074A9042F2D90423B5E700BF00700040B0
:101C14008058840C0087930380C3C901003C0240B0
:101C2400000E2707804A5D0580D1F00838B5EFF330
:101C34001185102383F31288BFF36F8F064B9C68C2
:101C440001F0BDFB85F31188BFF36F8F2046BDE81B
:101C54003840FFF753B800BF5003012038B50A4B92
:101C640053F82040013053F82050A54200D838BD25
:101C7400606830B1037EDB0701D401F075FB0834E2
:101C8400F3E723689847FAE7EC3D0008284B012264
:101C9400032070B5274C86B0274D1A70FFF7DEFF7E
:101CA4000420FFF7DBFF26463034AE420FD3214C2D
:101CB40000F07AFBAC4226D300F08AFBFEF7F0FB7F
:101CC4001E4A938923F00103938106B070BD54F832
:101CD4000C3C059354F8103C049354F8143C0393BF
:101CE40054F8183C029354F81C3C019354F8203CDB
:101CF400009354E90A2354E90C0100F0BDF854F8A8
:101D0400303C5E65CFE7D4E90A23B3F1FF3F08BF57
:101D1400B2F1FF3F05D052EA0301206803D100F07D
:101D240009F93034C6E70649183000F0F7FBF8E744
:101D34007D030120843B0008843B0008000101204E
:101D44009334000870B5002386B00122144E019329
:101D54000446144D06EBC0161349CDE904230F22A3
:101D6400CDE9023214234FF4A07203FB00554FF463
:101D7400C0700E4B00FB04113046009500F07CF857
:101D8400337C0B4A23F00403EE602C7433744FF459
:101D9400046304FB033313446B6006B070BD00BFDF
:101DA4008000012050030120C00B0120C93300082A
:101DB400800301207FB50020FFF750FF264B83F3FB
:101DC4000888264D0024F02385F82230EC772C7601
:101DD4006C76AC7685F820406B6A43F4E0236B6242
:101DE400FEF7AAFEFEF774FF4FF0FF33AB62EB621F
:101DF400FFF790F81A4DFEF7EBFF1A4800F08EF843
:101E0400FEF7DEFB0120FFF729FF0220FFF726FF84
:101E140000F0C2FA144B4FF4806214495D61284605
:101E2400134B009405930123CDE90144CDE9034309
:101E3400104B00F021F82B7C0646284623F00403BF
:101E44002B7401F0FDFA2046FFF77CFF094A314666
:101E54002846FEF71FFF00BFC00B012000ED00E085
:101E6400000101208001012050030120400D0120C8
:101E7400A8430008911C000807322DE9F04322F022
:101E8400070285B01F4600F158037F3200250E4635
:101E94000F9922F03F0204468173002185603F2A96
:101EA400C57306F14009A2F14008C0E91633109B3E
:101EB40083814FF00403C0E9065503744FF000001A
:101EC400C4E90A0105D885F31188BFF36F8F18465A
:101ED40002DFB51820462946FEF718FC07300E9B92
:101EE400314620F00700C4E91898A0662D1A029321
:101EF40020460D9B2A4601930C9B00933B46FEF71C
:101F04009DFE00236365044B9B6803B1DB6E28468A
:101F1400E36605B0BDE8F083500301200123037498
:101F240083810023C0E91833C366014B986070476E
:101F34005003012038B50446EFF31185102383F3D1
:101F44001288BFF36F8F037C5B070FD5183000F046
:101F54007DFB237C204623F00403237401F07FFAE5
:101F640029460548BDE8384001F0A9BA85F311882F
:101F7400BFF36F8F38BD00BF7E030120094A6FF0A5
:101F84000A0193689967084958674B6843F080537E
:101F94004B60002383F31188BFF36F8F9368986FAE
:101FA400704700BF5003012000ED00E038B590F900
:101FB40010200146037C002A04DA03F07F03037433
:101FC40001F02CFA0D4D2A46AB6852F8184F944292
:101FD40000D004B9EC688B4207D01A7CD20604D135
:101FE400DA897F2A01D9A2692AB1A34202D0204604
:101FF40000F034FA23466B6138BD00BF5003012062
:1020040070B590F91020037C002A2FDBD9062DD15E
:102014001A4C63F07F0322460374E16952F8183FB7
:10202400934207D1C0E900210860E0610FE09942C2
:10203400F8D01B68002BF5D093F90E6090F90E5080
:10204400AE42F4DD5968C0E9003108605860A56902
:10205400954200D005B9E568A3681A7CD20606D17A
:10206400DA897F2A03D9AA690AB9636170BDAB42D0
:1020740002D0284600F0F2F96561F7E75003012029
:10208400034648B9EFF3058232B9064A51699268AA
:10209400914201D0FFF772BF83F31188BFF36F8FB2
:1020A400704700BF5003012038B5184CA168E0699F
:1020B4000B68814214BF1A46002249680B605960BC
:1020C400A368E1692AB9124AC3E900210B60E361FC
:1020D4000AE092F90E5093F90E00854212DD516820
:1020E400C3E900210B605360A569094B9D4200D0F0
:1020F40005B9E568A3689D4202D0284600F0AEF910
:10210400656138BD8A42DED01268DBE750030120E6
:1021140068030120002A2DE9F0470CBF4FF0100995
:102124004FF00809027C04460E460F4619EA020FD6
:1021340028D149EA0203D20946D10374B9F1080F40
:1021440048D04FF00008DFF8F0A0534653F8185F6A
:102154009D4200D00DB9DAF80C50DAF80830AB42E1
:1021640002D0284600F07AF9B9F1100FCAF81450D9
:1021740008D0204600F0C1FEB8F1000F02D02F486D
:10218400FFF7CCFE2C4B9B68A3424FD1EFF30583A2
:10219400002B4BD1A289D20711D586F31188BFF346
:1021A4006F8F83F31188BFF36F8F0423184602DF08
:1021B400EFF31187102383F31288BFF36F8F384630
:1021C400BDE8F047FFF7DABE03F07F03037401F0C4
:1021D40025F9B3E7A36813B1204601F027F904F108
:1021E400180004F1580800F031FAA56DA84511D083
:1021F4004FF0000A75B1284601F018F905F11800EE
:1022040000F024FA2846C5F878A0FFF7F9FEA56D7A
:10221400A845EFD1084B9B689C4292D1EFF3058807
:10222400B8F1000818BF4FF001088CE786F3118855
:10223400BFF36F8FBDE8F0875003012080010120B8
:1022440070B50F4D06462B4653F8184F9C4200D0EC
:1022540004B9EC68AB681A7CD20604D1DA897F2A07
:1022640001D9A2692AB1A34202D0204600F0F6F8AF
:10227400234630466B61BDE87040FFF701BF00BFE5
:102284005003012070B5EFF31186102383F31288F5
:10229400BFF36F8F1A4CA168E0690B68814214BFC9
:1022A4001A46002249680B605960A368E1692AB99B
:1022B400144AC3E900210B60E3610AE092F90E506D
:1022C40093F90E00854216DD5168C3E900210B60C5
:1022D4005360A5690B4B9D4200D005B9E568A3681E
:1022E4009D4202D0284600F0B9F830466561BDE849
:1022F4007040FFF743BE8A42DAD01268D7E700BFC6
:102304005003012068030120F8B550EA0103064692
:102314000C4603D101F080F80020F8BDEFF31187DB
:10232400102383F31288BFF36F8F174D174BA868E0
:10233400186001F096F8A86832462346144918300C
:1023440000F0ECF8AB6804461A7C5F6742F00402C4
:102354001A746FF00A029A670E4A536843F0805366
:102364005360002383F31188BFF36F8FAA68D2E907
:102374000A12B2F1004F08BF9942CDD101F0D2F850
:10238400201A20EAE070C8E75003012070030120FE
:102394009334000800ED00E0024B03F11802C3E996
:1023A4000622704750030120EFF31181102383F3B9
:1023B4001288BFF36F8F054B9A68D37B013BD373AD
:1023C40081F31188BFF36F8F704700BF5003012062
:1023D400EFF31180102383F31288BFF36F8F034B45
:1023E4009A68D37B0133D373FFF72ABF50030120CC
:1023F400014B9868704700BF50030120027C0346DC
:1024040012F01F0210D10A4988420DD00949086808
:1024140068B1D9897F2909D893F90E20064B1B6826
:102424009A42B8BF0020704700207047104670479A
:10243400800001203000012074030120044B01229C
:10244400C01A044BC0105843034B1A54704700BFC2
:1024540000020120ABAAAAAA7E030120F8B50C4B06
:102464000C4D1E7CFFF7CAFF182304460A4F03FBDA
:102474000655284600F0EAF834B1BB5D2846074902
:10248400E21AD31700F04AF80023BB55F8BD00BF89
:1024940050030120000201207E0301204124000892
:1024A40070B5EFF31186102383F31288BFF36F8F97
:1024B4000F4D104BAC681868A04202D1FFF7CEFF55
:1024C40011E000221A602B7C0B4AD35C5BB12046DE
:1024D400FFF794FF38B1237CDB0604D1FFF7E4FD5A
:1024E4006869A042EAD086F31188BFF36F8F70BD8C
:1024F40050030120700301207E030120024B186861
:10250400984208BF0020704738000120024B186829
:1025140008B1FFF7CDBA704734000120B3F1FF3F93
:1025240008BFB2F1FF3F2DE9F84F0446994615461E
:102534001F4600F081808160EFF31188102383F33C
:102544001288BFF36F8FB9F1000FDFF8F4A025DB19
:10255400FFF7DCFF3B4B06461B68003B18BF01231B
:10256400451949EBE0795B19DAE9005749F10002B2
:102574004FF001095D1942EB0707C4E90432FFF784
:10258400BDFFDFF8C4E00346DEF804A0EBB9C4E9FC
:1025940000EACAF80040CEF8044028E0DAE9001264
:1025A4006FF001035B1A4FF0FF3161EB02025B1B1A
:1025B40062EB0902012B4FF0000972F10001BCBF6C
:1025C40001230022C0E90432D9E7D3E9041CD4E989
:1025D40004208A4270EB0C0B25DA891A5A686CEBDA
:1025E4000000C3E90410C4E9003214605C60FFF722
:1025F40085FF84420FD1134B1B6801330BD1B9F112
:10260400000F02D1FFF782FF0646304600F073FF49
:102614000021FFF7D5F988F31188BFF36F8F28469F
:102624003946BDE8F88F521A60EB0C005345C4E9F3
:102634000420ACD01B68A9E700252F46EFE700BFB4
:102644001802012034000120380001200246F8B5A8
:10265400EFF31185102383F31288BFF36F8F0168A2
:1026640051B3FFF74BFF1C4B5B689A4208D0D1E98A
:102674000434D2E90476DB1944EB0604C1E90434DA
:10268400D2E90031002400264FF0004790420B604D
:102694005960C2E90044C2E9046705D0002085F30B
:1026A4001188BFF36F8FF8BDFFF730FF00F023FFF1
:1026B4002146FFF785F9F1E7D0E90413B3F1004FA0
:1026C40008BF012904D100204FF00041C2E90401F0
:1026D4006FF01500E3E700BF380001202DE9F84F43
:1026E4000023DFF8BC902F4C0D46DFF8BC80012698
:1026F4004FF00047C9F800002360FFF7FFFED9F848
:102704000020D8E900CE4FEAE27A50B1D0E9043192
:102714009A427AEB010B1FDA9B1A61EB0A01C0E9BA
:10272400043112EB0C024FF000064EEB0A03304664
:10273400C9F80060C8E900234FF0FF33236000F0BC
:10274400DAFE3146FFF73CF985F31188BFF36F8F4A
:10275400BDE8F84FFFF7A4BE13EB0C0CA2EB030388
:10276400D0F808A0C9F8003041EB0E01D0E90032DE
:10277400C8E900C113605A600023C0E90467C0E9D6
:10278400003385F31188BFF36F8FD047EFF31185C2
:10279400102383F31288BFF36F8FFFF7AFFEAEE70A
:1027A40078030120340001201802012010B5EFF352
:1027B4001184102383F31288BFF36F8FFFF7A6FEF3
:1027C400054A0346D2E90001181841EBE37184F38A
:1027D4001188BFF36F8F10BD180201200FB407B525
:1027E400064B04AA186852F8041B019200F008F87A
:1027F40003B05DF804EB04B0704700BF543D00081B
:102804002DE9F04F8BB04368009383789C07804692
:10281400924640F1F98000250878002800F0F680FF
:1028240025280AD04B1C019301354146009B98474B
:102834000028C0F2E3800199EEE74E788B1C252E28
:102844000193F1D00027B9463C460A221F2C22D816
:10285400A6F12003102B20D8DFE803F0141F1F1A61
:102864001F1F1F0B1F1F1F121F171F1F090044F0DC
:102874000104019B13F8016B0193002EE6D13AE0A9
:1028840044F0020444F00404F3E744F00804F0E7DD
:1028940044F01004EDE77F2C24D8A6F13003092B73
:1028A40008D860064EBF02FB073702FB093944F023
:1028B4002004DEE72A2E0DD161065AF8043B53D4D6
:1028C400002BA7BF44F020049946C3F1000944F04B
:1028D4002804CEE72E2E05D1630600F1978044F03C
:1028E4004004C6E76C2E2ED028D8682E32D06A2E2B
:1028F40037D04C2E35D0002F46F02003B8BF24F03B
:102904004004A3F16502BCBFA4B20027022A01D986
:10291400612B2BD10AF1070A2AF0070A9C4E0AF10F
:10292400080A0727210760D506EB070B34465C45E8
:102934005DD1AE1BA219A9EB070959E1742E98D0F9
:102944007A2E96D0D7E7260648BF44F4007444F0A4
:1029540080048EE7E00548BF44F4007444F48074B6
:1029640087E744F4207484E71F4682E7A6F16302F4
:10297400122A00F2D880DFE812F013004D00D600CE
:10298400D600D600D6004D00D600D600D600D6001C
:10299400D600E800D100D600D6001A00D600A00068
:1029A4005AF8043B8DF81030012704AEBAE75AF800
:1029B400046B784B002E08BF1E4614F0400F14BF62
:1029C40039464FF0FF31304600F0C6FD0746A9E70F
:1029D400009B41462020984700280FDB013CA7427A
:1029E400F6D34D442D1BA1469EE74C46F7E714F859
:1029F400010B009B41469847002898DA98F802306A
:102A040043F0040388F802304FF0FF3528460BB03A
:102A1400BDE8F08F220630D5A3052AD50AF1070AAE
:102A24002AF007039A4659685AF8080B24F0100B49
:102A340000291FFA8BFB2FDA404261EB41014BF472
:102A4400806B04AC0A23224600F092FD1BF0400F79
:102A5400A0EB040200F08E802BF001049742A4B294
:102A640040F38F80002E40F08E802BF01104A4B22E
:102A74001DE05AF8040BC117D8E7E0055AF8041B07
:102A840001D40846F7E7A2054BBF48B208B241F3A8
:102A9400C01141F3C031C9E750EA0103D1D1630643
:102AA400CFD5002FCDD124F01104A4B23A463B4631
:102AB40040F206410C4262D124E024F01004A4B296
:102AC4000A2314F0800243D014F400711FBF0AF1EA
:102AD400070A2AF007029246516814BF5AF8080BF5
:102AE4005AF8040B50EA01023ED124F0160B620698
:102AF4001FFA8BFB3CD5002F3AD124F01704A4B263
:102B04003A463B4621075AD4E10705D5994572DD7B
:102B1400A9EB03039F184B469B464AE044F010047C
:102B240010237826CDE7782B04D1C6F1780343F03F
:102B34001003C6E7009B4146252098470028FFF66E
:102B44005DAF02354146304670E608230026B8E7FB
:102B540014F480715AF8040BC4D014F400711ABF31
:102B6400C0B2114680B2BDE724F006041FFA84FB0C
:102B740004AC68E713465C46E10699D52EB90133E7
:102B8400C0E71346F8E73B46F6E70233BAE700BF6F
:102B9400B4430008AD430008CDE902324146009B2E
:102BA400202098470028FFF629AFDDE902320BF117
:102BB400010BD945F0DCEB1A03EB0B055B46E10690
:102BC40027D5CDE902324146009B302098470028A2
:102BD400FFF614AFDDE902327EB901352F44791BCB
:102BE4008A4229DB144604AE9CBB2A44A9EB0309A0
:102BF4001546914442E017468EE7CDE9023202358C
:102C040041463046009B98470028DDE90232E5DA68
:102C1400F4E640F206410C42E0D014F0020F14BF77
:102C24002B20202014F4806FCDE9023205F1010538
:102C3400414618BF2D20E5E7CDE902324146009B0D
:102C4400302098470028DDE9023205F10105C6DA93
:102C5400D4E6013CCDE90232305D009B4146984701
:102C64000028DDE90232BFDAC8E6009B4146202095
:102C74009847002805F10105FFF6C0AEA9EB05034E
:102C8400002BF2DCD7E500BF704700EBC1004088A1
:102C940040087047F8B50346FFF7F7FFB0FA80F035
:102CA400CA000C468DB2C0F11F00171D063203EB9B
:102CB400800CDCF8106056B9012101FA00F0D968E3
:102CC4000143D960CCF81040DD539D52F8BDF100AA
:102CD4000431585AD85303EBC0009E52C5805D524C
:102CE400F4E7043A2DE9F843CC1D11444FF00009F0
:102CF40024F0070421F007064946A6EB0408046003
:102D040004F11000C4F80C904FEAD807B7FA87F220
:102D1400A760C2F12405C2F12002AD00920007357C
:102D240000F012FCA4F80090ED08AAB204EBC5016F
:102D3400530043F0010363807B1B9BB2580048801F
:102D4400294624F835202046A6F8029024F80830B5
:102D540004EBC7035A8842F001025A80BDE8F843E5
:102D6400FFF798BF002070470FB407B504A951F8C6
:102D7400040B0191FDF7E0FB03B05DF804EB04B034
:102D8400704770476FF0570070476FF057007047F7
:102D94006FF0570070476FF0570070476FF057009F
:102DA40070476FF057007047F0B502F4C0454068B3
:102DB400B5F5804F44684FF0010000FA01F074D17A
:102DC4000729C2F343255AD890FAA0F3B3FA83F340
:102DD4000F27266A9B0007FA03F326EA030690FAF4
:102DE400A0F3B3FA83F39B0005FA03F3334323629E
:102DF4006568C2F3C0338B4025EA00010B4363606E
:102E040090FAA0F1B1FA81F10326A568C2F3014357
:102E1400490006FA01F125EA010590FAA0F1B1FA98
:102E240081F149008B4090FAA0F1B1FA81F12B4372
:102E34004900A360E568C2F3814306FA01F1C2F3D5
:102E4400413225EA010590FAA0F1B1FA81F1490075
:102E54008B402B43E36090FAA0F3B3FA83F3216829
:102E640090FAA0F05B00B0FA80F006FA03F3400099
:102E740021EA0303824000201A432260F0BD030AC2
:102E84004FF00F0C93FAA3F6B6FA86F6676A93FA34
:102E9400A3F3B600B3FA83F30CFA06F69B0027EA11
:102EA40006069D4035436562A2E7B5F5005FA7D1EC
:102EB4006668C2F3C03505FA01F126EA0005294324
:102EC4006160002B9CD0D30201D5A06198E7030474
:102ED400A36195E700F038BB00F028BB0146006809
:102EE400FDF7E0BB08B5FDF70DFCBDE80840FDF7B4
:102EF400F5BE00210120FDF7D5BB6FF085007047BA
:102F040061B662B680F31188BFF36F8F704772B6F3
:102F1400002383F31188BFF36F8FBFF34F8F30BF4C
:102F240062B6BFF36F8F7047202809D9B0F1004F04
:102F340008D80138B0FA80F0C0F11F004000704793
:102F4400082070473E20704708B5FEF7A5F800201A
:102F540008BD08B5062201210020FEF7F9F8002279
:102F640006201146FDF72AFE012107220846FEF736
:102F7400EFF8002207201146FDF720FE0822012168
:102F84000220FEF7E5F8002208201146FDF716FEA0
:102F9400092201210320FEF7DBF800220920114653
:102FA400FDF70CFE0A2201210420FEF7D1F80022CD
:102FB4000A201146FDF702FE052117220846FEF7F6
:102FC400C7F8002217201146FDF7F8FD2822062134
:102FD4000A20FEF7BDF8002228201146FDF7EEFD79
:102FE400002008BD0B8882B0C3F30B0303F57D6298
:102FF400C2F30B02782A14D803F18043486803F51E
:103004000E331A68024300201A600B88C3F30B03C3
:1030140003F1804303F50E331B680193019B02B057
:1030240070476FF08500FAE70B88C3F30B0303F5D1
:103034007D62C2F30B02782A0AD803F180434968FF
:10304400002003F50E331A6822EA01021A60704761
:103054006FF08500704770B508884A68C0F30B00AC
:1030640094B2C2F30445FEF717F9A0B9FF2A11D0B0
:10307400C2F34156012304F18041120E013601F5D9
:103084000E31AA40B3400C68013BAB4024EA030371
:1030940013430B6070BD6FF08500FBE70888C0F335
:1030A4000B0008B500F57D63C3F30B03782B0AD836
:1030B40000F180404B6800F50E30026893430CBF6A
:1030C4000220012008BDFEF7E7F800280CBF02200B
:1030D4000120F7E7704730B5036813600579046889
:1030E40004EBC504A34202D36FF0010030BD5C7948
:1030F40008338C42F1D10020F8E7F8B5044600EB20
:103104008105AC4201D100200FE054F8046B06F0B5
:103114001F00C6F34317FDF741FA38B101233246C5
:103124003946FFF741FE0028EBDAF8BD6FF01200D4
:10313400FBE74368C1F34B1001F01F011B68C05843
:1031440001238B4003400020003B18BF0123137070
:10315400704710B54368C1F34B1001F01F011A68A2
:10316400012384588B4023438350002010BD10B5A5
:103174004368C1F34B14012201F01F0118688A400F
:10318400235823EA02032350002010BD38B5044617
:103194000D46FFF7DEFF29462046FFF7E8FF002033
:1031A40038BDB0F5805F07D0B0F1805F09D1002948
:1031B4000CBF02200120704700290CBF042003200B
:1031C400704700290CBF03200220704743681B6826
:1031D400D869DA69C0F3C00002F0010240EA420093
:1031E400DA699207DA6948BF40F004005107DA69E6
:1031F40048BF40F02000D20504D54FF4807240F05F
:1032040008001A62C10701D508221A62820701D593
:1032140001221A62410701D502221A62820601D5EF
:1032240004221A62704737B5034605680C4619B97B
:103234006FF0150003B030BD406819698368DB681E
:1032440093B101AA98470028F4DB2B6823F40043C8
:103254002B60019B03EB5403B3FBF4F10F29E7D973
:1032640089B20020E960E5E76FF05700E2E710B5A6
:10327400436810201B68DA691206FCD5EFF311824B
:1032840080F31288BFF36F8FDC69240604D482F3C1
:103294001188BFF36F8FEEE7996282F31188BFF351
:1032A4006F8F10BD43681B68DA69100701D50822C7
:1032B4001A62DA69920603D55B6A00200B707047C4
:1032C4004FF0FF30704710B5026904460B46126890
:1032D40012680A6042681268126802F4C062B2F5A9
:1032E400806F33D0A2F5C060424242411A716268D5
:1032F4001268526802F44052B2F5805F28D0B2F5E9
:10330400405F27D0002A0CBF012203225A71626851
:1033140012681068116800F0102001F4C061FFF712
:1033240040FF9871626800201268926802F440724B
:10333400A2F540714A424A41DA71616809688968B4
:1033440011F4804F18BF0322DA7110BD0222CDE7B9
:103354000022DBE70222D9E7EFF31180102383F385
:103364001288BFF36F8F704710B5436904463BB9A9
:103374000020E2684042537843F00103537010BDCB
:1033840098470028F4D00028E368B8BF4042FF28DB
:10339400A8BFFF201870ECE740B1C368587810F05C
:1033A40001001EBF1878B0FA80F040097047EFF3AF
:1033B4001183102383F31288BFF36F8FFEE708B5E0
:1033C400FFF7F5FF10B51024EFF3118384F312888F
:1033D400BFF36F8FFFF79BFDF6E738B58589EFF3F1
:1033E4001181102282F31288BFF36F8F037C13F0D4
:1033F400080404D081F31188BFF36F8F38BD012214
:10340400FEF788FEEB07F9D584F31188BFF36F8FBD
:103414000423184602DFF1E7FEF734BFD0E9003297
:1034240013605A600023C0E90033704708B5FFF702
:10343400F5FF037C23F0020303740023836008BDBB
:1034440010B5EFF31184102383F31288BFF36F8F49
:10345400FEF7D6FD84F31188BFF36F8F10BDFEF71E
:10346400CFBDFEF7A3BD08B5037C014613F0280FBA
:103474000CD183680BB1FFF7D9FF0B7C084623F00E
:1034840004030B74BDE80840FEF7BABD08BD10B5CF
:10349400EFF31184102383F31288BFF36F8FD0E905
:1034A4000423B3F1004F08BF012A04D084F3118828
:1034B400BFF36F8F10BD1838FFF7D5FFF6E7084646
:1034C400FEF7DEBD38B505460C46FEF71DFFB4F128
:1034D400FF3F08BFB5F1FF3F0AD0C11709304FF0D5
:1034E4000A024FF0000341F10001FCF761FE38BD10
:1034F4004FF0FF30FBE708B50246FEF7FFFF70B15F
:10350400D0E904319B1A61EBE272B3F1004F72F11E
:10351400000104DA002AACBF1846002008BD6FF091
:103524000040FBE708B5FFF741F908BD0A449142A2
:1035340000F1FF3300D1704710B511F8014B03F8C7
:10354400014F9142F9D110BD02440346934200D188
:10355400704703F8011BF9E710B5024601448A429B
:10356400134603D01C780132002CF8D1181A10BD70
:10357400F0B5C3F137070446FFB203F01F0310464A
:10358400082BE6B233D0102B3ED06508A40844EAD9
:10359400817445EAC1752D194FEA910242EB51023B
:1035A400290941EA02716D1842EB1212290A41EA13
:1035B40002616D1842EB1222290C41EA02416D1896
:1035C40042EB1242AD1842F10002EC0844EA4274A4
:1035D400D10804EB8402A6EB4205EDB2092D0CD907
:1035E4000134A5F10A0541F10001EDB212E0E4084D
:1035F40044EA417406F00705C908303554EA01026B
:1036040000F8015BBCD1F0BD240944EA017406F062
:103614000F050909092D84BFED19EDB2EDE700008E
:08362400C4CBFF7F0100000090
:10362C0000000000DC3600086D05000800000000FA
:10363C0000000000F8360008000000004C370008BD
:10364C00000000004838000800000000F4370008B3
:10365C00000000002C38000800000000143700089F
:10366C00000000001038000800000000D8370008E7
:10367C0000000000BC37000800000000A037000864
:10368C0000000000843700080000000068370008C4
:10369C000000000030370008572F00080000000021
:1036AC0000000000803800080000000064380008AA
:1036BC00E1140008000000002119000800000000BF
:1036CC00C5100008000000001505000800000000EF
:1036DC006A43000800000000943B000868000120C9
:1036EC0000000000BD120008000000007743000835
:1036FC00583D0008843B00086A00012000000000CF
:10370C0000000000000000005B3E0008F03B0008D9
:10371C00B03B000850000120200201208105000868
:10372C0000000000693E0008043C0008B03B0008A3
:10373C00520001202C02012081050008000000002D
:10374C00773E0008183C0008B03B000854000120EC
:10375C00380201208105000800000000853E0008A9
:10376C002C3C0008B03B000856000120440201200C
:10377C008105000800000000933E0008403C000852
:10378C00B03B0008580001205002012081050008C0
:10379C0000000000A13E0008543C0008B03B0008AB
:1037AC005A0001205C020120810500080000000085
:1037BC00AF3E0008683C0008B03B00085C000120EC
:1037CC00680201208105000800000000BD3E0008D1
:1037DC007C3C0008B03B00085E0001207402012014
:1037EC008105000800000000CB3E0008903C00085A
:1037FC00B03B000860000120800201208105000818
:10380C0000000000D93E0008A43C0008B03B0008B2
:10381C00620001208C0201208105000800000000DC
:10382C00E73E0008B83C0008B03B000864000120EB
:10383C009802012081050008000000004C4300089C
:10384C0000000000000000006600012000000000E5
:10385C00E910000800000000884300085C3D0008E7
:10386C00D43B00086C0001201400012079160008DC
:10387C000000000098430008A43D0008D43B000859
:10388C006E000120200001207916000800000000C5
:10389C0000000000F72E000800000000F72E0008C2
:1038AC0000000000F72E000800000000F72E0008B2
:1038BC0000000000F72E000800000000F72E0008A2
:1038CC00C84300086D110008C64300086D110008BC
:1038DC00C44300086D110008C24300086D110008B4
:1038EC00C04300086D11000800000000F72E00080E
:1038FC0000000000F72E000800000000F72E000862
:10390C0000000000F72E000800000000F72E000851
:10391C0000000000F72E000800000000F72E000841
:10392C0000000000F72E000800000000F72E000831
:10393C0000000000F72E000800000000F72E000821
:10394C0000000000F72E0008BE4300086D110008AF
:10395C0000000000F72E000800000000F72E000801
:10396C0000000000F72E000800000000F72E0008F1
:10397C0000000000F72E000800000000F72E0008E1
:10398C0000000000F72E000800000000F72E0008D1
:10399C0000000000F72E000800000000F72E0008C1
:1039AC0000000000F72E000800000000F72E0008B1
:1039BC0000000000F72E000800000000F72E0008A1
:1039CC0000000000F72E000800000000F72E000891
:1039DC00BC4300086D11000800000000F72E000821
:1039EC0000000000F72E000800000000F72E000871
:1039FC0000000000F72E000800000000F72E000861
:103A0C0000000000F72E000800000000F72E000850
:103A1C0000000000F72E000800000000F72E000840
:103A2C0000000000F72E000800000000F72E000830
:103A3C0000000000F72E000800000000F72E000820
:103A4C0000000000F72E000800000000F72E000810
:103A5C0000000000F72E000800000000F72E000800
:103A6C0000000000F72E000800000000F72E0008F0
:103A7C0000000000F72E000800000000F72E0008E0
:103A8C0000000000F72E000800000000F72E0008D0
:103A9C0000000000F72E000800000000F72E0008C0
:103AAC0000000000F72E000800000000F72E0008B0
:103ABC0000000000F72E000800000000F72E0008A0
:103ACC0000000000F72E000800000000F72E000890
:103ADC0000000000F72E000800000000F72E000880
:103AEC0000000000F72E000800000000F72E000870
:103AFC0000000000F72E000800000000F72E000860
:103B0C0000000000F72E000800000000F72E00084F
:103B1C0000000000F72E000800000000F72E00083F
:103B2C0000000000F72E000800000000F72E00082F
:103B3C0000000000F72E000800000000F72E00081F
:103B4C0000000000F72E000800000000F72E00080F
:103B5C0000000000F72E000800000000F72E0008FF
:103B6C0000000000F72E000800000000F72E0008EF
:083B7C0000000000F72E000814
:103B840037310008573100087331000891310008BB
:103B9400E92F00082D30000800000000B9110008CA
:103BA400A1300008000000005B300008892D0008E7
:103BB4008F2D0008952D00089B2D0008A72D0008C7
:103BC400A12D00080000000000000000000000001B
:103BD400A932000873320008D1310008C117000867
:043BE400CB320008D8
:103BE8004400000000400000FFFF000000280240E1
:103BF8000A0000003000000000040000FFFF000081
:103C0800002402400900000030000000000200000B
:103C1800FFFF000000200240080000003000000004
:103C280000010000FFFF0000001C02400700000028
:103C38003000000080000000FFFF00000018024074
:103C4800060000003000000040000000FFFF0000F8
:103C580000140240050000003000000020000000B1
:103C6800FFFF0000001002400400000030000000C8
:103C780010000000FFFF0000000C024003000000DD
:103C88003000000008000000FFFF000000080240AC
:103C9800020000003000000004000000FFFF0000E8
:103CA8000004024001000000300000000200000093
:103CB800FFFF00000000024000000000300000008C
:103CC800010000002C38000810380008F4370008FC
:103CD800D8370008BC370008A03700088437000828
:103CE800683700084C3700083037000814370008D8
:103CF800F53E0008000000900000001000000002DF
:103D0800113F0008000000C0000080000000100003
:103D1800203F0008000000900000000100000001A2
:103D2800000001200000000000000B060200000057
:103D38003C3D0008000000083D430008260002063C
:103D4800000001204543000822000B110400012057
:103D58000038024000140140DC360008F83600083C
:103D680085040000843D00080100000000000000F8
:103D780000000000000000008C3D00084400000026
:103D880020000000943D0008010000009C3D000850
:103D980002000000C2500400E25000000010014080
:103DA800DC360008F836000884040000CC3D000822
:103DB80001000000000000000000000000000000FA
:103DC800D43D00084400000010000000DC3D00085D
:103DD80001000000E43D000802000000204F04003C
:103DE800E14E00002C3600082C360008C4360008C6
:103DF800CC360008D4360008DC3600080010000075
:103E080000304F4E004F4646004C454420737461C5
:103E180074653A2025730A002A2A2A20426F6F7493
:103E2800696E67205A6570687972204F53206275F1
:103E3800696C642076342E342E302D343438382D85
:103E480067366565653466656366303763202A2A98
:103E58002A0A006770696F403430303232383030A7
:103E6800006770696F403430303232343030006768
:103E780070696F40343030323230303000677069EA
:103E88006F403430303231633030006770696F40D2
:103E98003430303231383030006770696F40343038
:103EA800303231343030006770696F40343030322E
:103EB80031303030006770696F40343030323063F1
:103EC8003030006770696F4034303032303830300D
:103ED800006770696F4034303032303430300067FA
:103EE80070696F403430303230303030006D656D7D
:103EF8006F72792D706C616365686F6C6465724070
:103F0800393030303030303000736472616D406366
:103F180030303030303030006D656D6F7279403937
:103F2800303030303030300072302F61313A20205C
:103F3800307825303878202072312F61323A2020AD
:103F4800307825303878202072322F61333A20209B
:103F58003078253038780A0072332F61343A2020BF
:103F6800307825303878207231322F69703A202025
:103F7800307825303878207231342F6C723A20200E
:103F88003078253038780A0020787073723A20200B
:103F98003078253038780A004661756C74696E6728
:103FA80020696E737472756374696F6E20616464DE
:103FB8007265737320287231352F7063293A203067
:103FC80078253038780A00556E68616E646C6564CF
:103FD800204952516E3A2025640A002A2A2A2A2AA0
:103FE800204D5055204641554C54202A2A2A2A2A29
:103FF8000A002020537461636B696E6720657272D2
:104008006F722028636F6E746578742061726561C1
:10401800206D69676874206265206E6F7420766110
:104028006C6964290A002020556E737461636B699A
:104038006E67206572726F720A0020204461746195
:10404800204163636573732056696F6C6174696F8F
:104058006E0A0020204D4D4641522041646472652D
:1040680073733A20307825780A002020496E7374DB
:1040780072756374696F6E2041636365737320564C
:10408800696F6C6174696F6E0A002020466C6F61FD
:1040980074696E672D706F696E74206C617A79200F
:1040A8007374617465207072657365727661746982
:1040B8006F6E206572726F720A002A2A2A2A2A20D5
:1040C8005553414745204641554C54202A2A2A2A0F
:1040D8002A0A0020204469766973696F6E20627924
:1040E800207A65726F0A002020556E616C69676ED0
:1040F8006564206D656D6F727920616363657373A4
:104108000A0020204E6F20636F70726F63657373AF
:104118006F7220696E737472756374696F6E730A57
:10412800002020496C6C6567616C206C6F616420AD
:104138006F66204558435F52455455524E20696E6C
:10414800746F2050430A002020496C6C6567616CCD
:1041580020757365206F662074686520455053523A
:104168000A002020417474656D707420746F206596
:1041780078656375746520756E646566696E6564D7
:1041880020696E737472756374696F6E0A002A2AE7
:104198002A2A2A20425553204641554C54202A2A7F
:1041A8002A2A2A0A002020537461636B696E6720EB
:1041B8006572726F720A00202050726563697365B8
:1041C800206461746120627573206572726F720A6F
:1041D8000020204246415220416464726573733A5C
:1041E80020307825780A002020496D70726563694F
:1041F8007365206461746120627573206572726FE3
:10420800720A002020496E737472756374696F6E48
:1042180020627573206572726F720A005265736549
:104228007276656420457863657074696F6E2028BE
:104238000053707572696F757320696E7465727258
:1042480075707420284952512000535053454C2012
:10425800696E20746872656164206D6F646520649E
:104268006F6573206E6F7420696E6469636174652D
:10427800205053500A002A2A2A2A2A204841524408
:10428800204641554C54202A2A2A2A2A0A0020204E
:10429800427573206661756C74206F6E2076656355
:1042A800746F72207461626C6520726561640A00C3
:1042B80020204465627567206576656E740A002063
:1042C800204661756C7420657363616C6174696FF5
:1042D8006E20287365652062656C6F77290A004136
:1042E8005243485F455843455054207769746820C5
:1042F800726561736F6E2025780A0A002A2A2A2AB5
:104308002A204465627567206D6F6E69746F72202C
:10431800657863657074696F6E202A2A2A2A2A0ACA
:10432800002A2A2A2A2A20257320256429202A2AB5
:104338002A2A2A0A00464C4153485F30005352410A
:104348004D5F3000696E746572727570742D636F9D
:104358006E74726F6C6C6572403430303133633018
:10436800300072636340343030323338303000729A
:10437800657365742D636F6E74726F6C6C65720013
:1043880073657269616C40343030313134303000DB
:1043980073657269616C40343030313130303000CF
:1043A8006D61696E00286E756C6C29002A666C6FE9
:1043B80061742A000A0605050401030102010101CE
:1043C80000010000000000000000010203040607CD
:0443D80008090000D0
:1043DC00692D0008000000004D2F000800000000AF
:1043EC00000000001800012000C2010000010300C1
:1043FC002400012000C20100000103000024F4008D
:10440C00C8000000FFFFFFFF38000120380001202A
:10441C00FFFFFFFFFFFFFFFFFFFFFFFFFFFFFFFFA0
:10442C000000000000000000000000000000000080
:10443C000000000000000000000000000000000070
:04444C0015E015E082
:0400000508000B697B
:00000001FF
